:100000000C9462000C948A000C948A000C948A0070
:100010000C948A000C948A000C948A000C948A0038
:100020000C948A000C948A000C948A000C948A0028
:100030000C948A000C948A000C948A000C948A0018
:100040000C9414040C948A000C94E2030C94BC03EA
:100050000C948A000C948A000C948A000C948A00F8
:100060000C948A000C948A000000000024002700F1
:100070002A0000000000250028002B0000000008D6
:10008000000201000003040700000000000000005F
:1000900000000000230026002900040404040404D6
:1000A0000404020202020202030303030303010227
:1000B00004081020408001020408102001020408F6
:1000C0001020A30411241FBECFEFD8E0DEBFCDBFA8
:1000D00011E0A0E0B1E0ECEFF0E102C005900D927C
:1000E000A838B107D9F722E0A8E8B1E001C01D9215
:1000F000A834B207E1F710E0C2E6D0E004C02197CF
:10010000FE010E947608C136D107C9F70E94EC04AF
:100110000C947C080C940000AF92BF92CF92DF92B7
:10012000EF92FF920F931F93CF93DF936C017B01AC
:100130008B01040F151FEB015E01AE18BF08C0173D
:10014000D10759F06991D601ED91FC910190F081B0
:10015000E02DC6010995892B79F7C501DF91CF9173
:100160001F910F91FF90EF90DF90CF90BF90AF90D5
:100170000895FC01538D448D252F30E0842F90E0AD
:10018000821B930B541710F0CF9608950197089592
:10019000FC01918D828D981761F0A28DAE0FBF2F5B
:1001A000B11D5D968C91928D9F5F9F73928F90E0B1
:1001B00008958FEF9FEF0895FC01918D828D981720
:1001C00031F0828DE80FF11D858D90E008958FEF5D
:1001D0009FEF0895FC01918D228D892F90E0805C26
:1001E0009F4F821B91098F739927089583E991E0AE
:1001F0000E94EA0021E0892B09F420E0822F089573
:1002000080E090E0892B29F00E94F60081110C9487
:1002100000000895FC01A48DA80FB92FB11DA35AA9
:10022000BF4F2C91848D90E001968F739927848F16
:10023000A689B7892C93A089B1898C918370806439
:100240008C93938D848D981306C00288F389E02DDA
:1002500080818F7D80830895EF92FF920F931F938B
:10026000CF93DF93EC0181E0888F9B8D8C8D981369
:100270001AC0E889F989808185FF15C09FB7F89475
:10028000EE89FF896083E889F989808183708064C1
:1002900080839FBF81E090E0DF91CF911F910F910C
:1002A000FF90EF900895F62E0B8D10E00F5F1F4F1B
:1002B0000F731127E02E8C8D8E110CC00FB607FC2A
:1002C000FACFE889F989808185FFF5CFCE010E94B8
:1002D0000A01F1CFEB8DEC0FFD2FF11DE35AFF4F1B
:1002E000F0829FB7F8940B8FEA89FB898081806246
:1002F000CFCFCF93DF93EC01888D8823B9F0AA8903
:10030000BB89E889F9898C9185FD03C0808186FDD0
:100310000DC00FB607FCF7CF8C9185FFF2CF80811F
:1003200085FFEDCFCE010E940A01E9CFDF91CF9189
:10033000089590E0FC01E458FF4F2491FC01E25540
:10034000FF4F3491FC01E656FF4FE491EE23C9F0D4
:10035000222339F0233001F1A8F4213019F12230A1
:1003600029F1F0E0EE0FFF1FEE58FF4FA591B49179
:100370008FB7F894EC91611126C030953E233C93E1
:100380008FBF08952730A9F02830C9F0243049F7ED
:10039000809180008F7D03C0809180008F77809353
:1003A0008000DFCF84B58F7784BDDBCF84B58F7DB0
:1003B000FBCF8091B0008F778093B000D2CF809137
:1003C000B0008F7DF9CF3E2BDACFCF93DF9390E053
:1003D000FC01E255FF4F249186569F4FFC0184910A
:1003E0008823D1F090E0880F991FFC01E859FF4F56
:1003F000A591B491FC01EE58FF4FC591D4916111C4
:100400000EC09FB7F8948C91E22FE0958E238C93C9
:100410002881E223E8839FBFDF91CF9108958FB7B2
:10042000F894EC91E22BEC938FBFF6CF8E50806462
:1004300080937C0080917A00806480937A00809120
:100440007A0086FDFCCF8091780090917900089524
:100450003FB7F89480918D0190918E01A0918F010A
:10046000B091900126B5A89B05C02F3F19F00196C9
:10047000A11DB11D3FBFBA2FA92F982F8827BC01FE
:10048000CD01620F711D811D911D42E0660F771F26
:10049000881F991F4A95D1F70895089590E080E04C
:1004A0000895CF93DF93EC0160E08E810E94990163
:1004B00061E08E810E94990160E08E810E94990125
:1004C0008BE891E00197F1F7DF91CF910895CF92FA
:1004D000DF92EF92FF920F931F93CF93DF936C0104
:1004E0007C0187E0E80EF11CD0E0C0E0062F10E0B0
:1004F000B8010C2E02C0759567950A94E2F76170F9
:10050000F70181917F010E9499012196C430D105A4
:1005100079F7C601DF91CF911F910F91FF90EF9076
:10052000DF90CF900C945102CF92DF92EF92FF9226
:100530000F931F93CF93DF93EC01F62E642F8C81E2
:100540000E9499018D818F3F19F060E00E9499010E
:100550000F2D10E08F8584FF25C06E0187E0C80E47
:10056000D11CF12CE12CB8010E2C02C075956795B9
:100570000A94E2F76170F60181916F010E9499017E
:10058000FFEFEF1AFF0A88E0E816F10461F7CE01E9
:10059000DF91CF911F910F91FF90EF90DF90CF905F
:1005A0000C945102B80184E0759567958A95E1F73E
:1005B000CE010E9467026F2DCE01DF91CF911F9176
:1005C0000F91FF90EF90DF90CF900C94670240E086
:1005D000682F80E392E00C949402CF93DF938230F3
:1005E00029F490913F02986090933F0280934302D8
:1005F0001092440280E48093450280E18093460299
:1006000080E58093470261E0809134020E94E50119
:10061000809135028F3F19F061E00E94E50161E0B1
:10062000809136020E94E501C0E3D2E09E01205392
:10063000324080913F0284FD0BC084E090E021961F
:100640002817390744F461E08E810E94E501EECF5E
:1006500088E090E0F4CF8BE39DE00197F1F760E054
:10066000809134020E94990160E0809136020E94DC
:100670009901809135028F3F19F060E00E94990145
:1006800080913F0284FD39C063E080E392E00E94E4
:100690006702CBE4D6E4CE010197F1F763E080E393
:1006A00092E00E9467022197F1F763E080E392E015
:1006B0000E94670283E592E00197F1F762E080E330
:1006C00092E00E94670280913F0280620E94E702EE
:1006D00084E0809340028CE00E94E70281E00E9467
:1006E000E7028BE39FE10197F1F782E080934102FB
:1006F00086E0DF91CF910C94E70280620E94E702CE
:100700008BE496E40197F1F780913F0280620E94AA
:10071000E70283E592E00197F1F780913F02806262
:100720000E94E702D0CF41E00E94940281E090E075
:100730000895FB0101900020E9F73197AF01461BB6
:10074000570BDC01ED91FC910280F381E02D0994BF
:100750000F931F93CF93DF93EC010E9499038C01B9
:100760006EE171E0CE010E949903800F911FDF912D
:10077000CF911F910F9108951F920F920FB60F9274
:1007800011242F933F934F935F936F937F938F9396
:100790009F93AF93BF93EF93FF9383E991E00E9400
:1007A0000A01FF91EF91BF91AF919F918F917F913E
:1007B0006F915F914F913F912F910F900FBE0F90CE
:1007C0001F9018951F920F920FB60F9211242F931E
:1007D0008F939F93EF93FF93E091A301F091A40176
:1007E0008081E091A901F091AA0182FD1BC0908156
:1007F0008091AC018F5F8F732091AD01821741F022
:10080000E091AC01F0E0ED56FE4F958F8093AC0186
:10081000FF91EF919F918F912F910F900FBE0F90AD
:100820001F9018958081F4CF1F920F920FB60F92F0
:1008300011242F933F938F939F93AF93BF938091F6
:10084000890190918A01A0918B01B0918C01309126
:10085000880123E0230F2D3758F50196A11DB11D06
:10086000209388018093890190938A01A0938B0142
:10087000B0938C0180918D0190918E01A0918F0198
:10088000B09190010196A11DB11D80938D019093AF
:100890008E01A0938F01B0939001BF91AF919F9172
:1008A0008F913F912F910F900FBE0F901F90189531
:1008B00026E8230F0296A11DB11DD2CFCF92DF9261
:1008C000EF92FF920F931F93E82FF92F05C001506D
:1008D00011092109310961F1908196239417B9F327
:1008E00005C0015011092109310911F190819623A8
:1008F0009413F7CFC12CD12CE12CF12C0AC08FEF2F
:10090000C81AD80AE80AF80A0C151D052E053F0575
:1009100079F080818623841791F36C2D7D2D8E2DA7
:100920009F2D1F910F91FF90EF90DF90CF90089532
:1009300060E070E080E090E01F910F91FF90EF90F9
:10094000DF90CF900895E3E9F1E01382128288EE00
:1009500093E0A0E0B0E084839583A683B78384E02E
:1009600091E09183808385EC90E09587848784EC87
:1009700090E09787868780EC90E0918B808B81EC6C
:1009800090E0938B828B82EC90E0958B848B86EC4D
:1009900090E0978B868B118E128E138E148EE0E36F
:1009A000F2E01382128286E191E0918380831482C7
:1009B0008FEF858381E0868384E0878387E080876B
:1009C00088E081878AE082871386148615861686DA
:1009D000178681E00C94ED02CF93DF93CDB7DEB79D
:1009E000A1970FB6F894DEBF0FBECDBF789484B543
:1009F000826084BD84B5816084BD85B5826085BD1B
:100A000085B5816085BD80916E00816080936E00A8
:100A1000109281008091810082608093810080919A
:100A2000810081608093810080918000816080934B
:100A300080008091B10084608093B1008091B0000B
:100A400081608093B00080917A00846080937A0006
:100A500080917A00826080937A0080917A00816030
:100A600080937A0080917A00806880937A00109257
:100A7000C10082E00E94ED0261E083E00E94E50196
:100A800060E082E00E94E501E091A301F091A40101
:100A900082E08083E0919F01F091A0011082E091BB
:100AA000A101F091A2018FEC80831092AB01E09143
:100AB000A701F091A80186E08083E091A501F09163
:100AC000A601808180618083E091A501F091A6015B
:100AD000808188608083E091A501F091A6018081EA
:100AE00080688083E091A501F091A60180818F7DCF
:100AF000808361E271E083E991E00E94A80360E4F1
:100B000071E083E991E00E94A80360E08EE00E941A
:100B1000E50160E08FE00E94E50161E08DE00E9468
:100B2000E50161E08CE00E94E50161E089E00E945E
:100B3000E50161E08BE00E94E50161E085E00E9453
:100B4000E50161E086E00E94E5015AE0852E912CE6
:100B5000A12CB12C63E0262E312C81E00E94E7020B
:100B60008BE39FE10197F1F7E1E08091430281116E
:100B7000E0E0E195F0E0E05DFD4F848980680E944F
:100B8000E70264E571E080E392E00E949903C0907F
:100B90009101D09092010D2C000CEE08FF08F7FE99
:100BA000F9C041E06DE280E392E00E9494022227C6
:100BB0003327A9012C193D094E095F0919A2CE015D
:100BC00081967C01CA01B901A50194010E941E070A
:100BD000605DF70162937F012115310541055105E3
:100BE00089F7E114F10429F0B70180E392E00E9453
:100BF000990360E671E080E392E00E94A80380918F
:100C00009101909192019C012150310965E671E0BA
:100C10002431310520F0459734F06AE771E080E334
:100C200092E00E9499030E9428026B017C0148EE29
:100C3000442E43E0542E612C712C0E9428026C1922
:100C40007D098E099F09683E734081059105A8F3CF
:100C5000F1E04F1A51086108710828EEC20E23E036
:100C6000D21EE11CF11C411451046104710429F7E6
:100C700060E083E00E949901C1010197F1F761E012
:100C800083E00E94990183E290E00197F1F760E030
:100C900083E00E949901E0EBF0E06491ECE9F0E080
:100CA0008491E82FF0E0EE0FFF1FE057FF4F859192
:100CB000949100E412E42FE030E0462F0E945E049D
:100CC000611571058105910529F06F5F7F4F8F4F89
:100CD0009F4F9F7095958795779567950E94EA0736
:100CE0002DEC3CEC48EE51E40E9440070E94B20714
:100CF00070939201609391018EE00E9416029C0114
:100D00002A5E31402932310508F05AC061E089E09D
:100D10000E94990161E08BE00E9499016FEF8DE0E4
:100D20000E94990161E085E00E94990161E086E0FE
:100D30000E9499016FEF8CE00E9499018FE00E9460
:100D400016028A3F91050CF063C060E089E00E94C2
:100D5000990161E08BE00E9499016FEF8DE00E94A4
:100D6000990160E085E00E94990161E086E00E94BF
:100D700099016FEF8CE00E94990180E090E0892B4F
:100D800009F4EBCE0E94F600882309F4E6CE0E9417
:100D90000000E3CEA701960119A2CE0181967C0145
:100DA000CA01B901A50194010E941E07605DF70107
:100DB00062937F01211531054105510589F711CF56
:100DC0008732F2E09F0774F061E089E00E949901A8
:100DD00060E08BE00E9499016FEF8DE00E94990125
:100DE00060E0A1CF863D91400CF0A8CF60E089E0A3
:100DF0000E94990161E08BE00E9499016FEF8DE004
:100E00000E94990161E085E00E94990160E08FCF26
:100E10008F3E92400CF4B1CF61E089E00E949901CD
:100E200060E08BE00E9499016FEF8DE00E949901D4
:100E300061E085E00E94990160E098CFA1E21A2E5E
:100E4000AA1BBB1BFD010DC0AA1FBB1FEE1FFF1F6E
:100E5000A217B307E407F50720F0A21BB30BE40BBE
:100E6000F50B661F771F881F991F1A9469F7609505
:100E70007095809590959B01AC01BD01CF010895BF
:100E80000E9454070C943C080E94350858F00E94B8
:100E90002E0840F029F45F3F29F00C9425085111E9
:100EA0000C9470080C942B080E944D0868F3992349
:100EB000B1F3552391F3951B550BBB27AA27621756
:100EC0007307840738F09F5F5F4F220F331F441F63
:100ED000AA1FA9F335D00E2E3AF0E0E832D0915097
:100EE0005040E695001CCAF72BD0FE2F29D0660F84
:100EF000771F881FBB1F261737074807AB07B0E8C7
:100F000009F0BB0B802DBF01FF2793585F4F3AF0CC
:100F10009E3F510578F00C9425080C9470085F3FB3
:100F2000E4F3983ED4F3869577956795B795F79552
:100F30009F5FC9F7880F911D9695879597F908953A
:100F4000E1E0660F771F881FBB1F621773078407D6
:100F5000BA0720F0621B730B840BBA0BEE1F88F7E5
:100F6000E09508950E94B9076894B1110C94700837
:100F700008950E94550888F09F5798F0B92F992737
:100F8000B751B0F0E1F0660F771F881F991F1AF074
:100F9000BA95C9F714C0B13091F00E946F08B1E062
:100FA00008950C946F08672F782F8827B85F39F061
:100FB000B93FCCF3869577956795B395D9F73EF40D
:100FC00090958095709561957F4F8F4F9F4F0895B5
:100FD000E89409C097FB3EF49095809570956195D3
:100FE0007F4F8F4F9F4F9923A9F0F92F96E9BB2789
:100FF0009395F695879577956795B795F111F8CF05
:10100000FAF4BB0F11F460FF1BC06F5F7F4F8F4F6F
:101010009F4F16C0882311F096E911C0772321F065
:101020009EE8872F762F05C0662371F096E8862FFD
:1010300070E060E02AF09A95660F771F881FDAF754
:10104000880F9695879597F9089597F99F6780E897
:1010500070E060E008959FEF80EC089500240A940A
:101060001616170618060906089500240A94121683
:101070001306140605060895092E0394000C11F4B6
:10108000882352F0BB0F40F4BF2B11F460FF04C063
:101090006F5F7F4F8F4F9F4F089557FD9058440FBC
:1010A000551F59F05F3F71F04795880F97FB991FC7
:1010B00061F09F3F79F08795089512161306140684
:1010C000551FF2CF4695F1DF08C016161706180611
:1010D000991FF1CF86957105610508940895E894EC
:1010E000BB2766277727CB0197F90895EE0FFF1FDF
:0C10F0000590F491E02D0994F894FFCFD6
:1010FC00000000002C018C00B9007901EA00C80046
:10110C00DC000000000093038C004E024D020D0A1F
:10111C0000556C747261736F6E69632053656E73E6
:10112C006F722048432D5352303420546573740031
:10113C00776974682041726475696E6F20554E4FE3
:10114C002052330044697374616E6365203A200049
:10115C00636D0A20000A205761726E696E67203A2F
:10116C00204F62737461636C65000A20506174686F
:08117C0020436C656172000064
:00000001FF
